{
  "contractName": "TodoList",
  "abi": [
    {
      "inputs": [],
      "payable": false,
      "stateMutability": "nonpayable",
      "type": "constructor"
    },
    {
      "anonymous": false,
      "inputs": [
        {
          "indexed": false,
          "internalType": "string",
          "name": "task",
          "type": "string"
        },
        {
          "indexed": false,
          "internalType": "uint256",
          "name": "todoNumber",
          "type": "uint256"
        }
      ],
      "name": "TodoCreated",
      "type": "event"
    },
    {
      "constant": true,
      "inputs": [],
      "name": "taskCount",
      "outputs": [
        {
          "internalType": "uint256",
          "name": "",
          "type": "uint256"
        }
      ],
      "payable": false,
      "stateMutability": "view",
      "type": "function"
    },
    {
      "constant": true,
      "inputs": [
        {
          "internalType": "uint256",
          "name": "",
          "type": "uint256"
        }
      ],
      "name": "todos",
      "outputs": [
        {
          "internalType": "string",
          "name": "todoName",
          "type": "string"
        },
        {
          "internalType": "bool",
          "name": "isCompleted",
          "type": "bool"
        }
      ],
      "payable": false,
      "stateMutability": "view",
      "type": "function"
    },
    {
      "constant": false,
      "inputs": [
        {
          "internalType": "string",
          "name": "_taskName",
          "type": "string"
        }
      ],
      "name": "createTodo",
      "outputs": [],
      "payable": false,
      "stateMutability": "nonpayable",
      "type": "function"
    }
  ],
  "bytecode": "0x608060405234801561001057600080fd5b5060405180604001604052806040518060400160405280600481526020017f746573740000000000000000000000000000000000000000000000000000000081525081526020016001151581525060016000808152602001908152602001600020600082015181600001908051906020019061008d9291906100be565b5060208201518160010160006101000a81548160ff0219169083151502179055509050506001600081905550610163565b828054600181600116156101000203166002900490600052602060002090601f016020900481019282601f106100ff57805160ff191683800117855561012d565b8280016001018555821561012d579182015b8281111561012c578251825591602001919060010190610111565b5b50905061013a919061013e565b5090565b61016091905b8082111561015c576000816000905550600101610144565b5090565b90565b6104a0806101726000396000f3fe608060405234801561001057600080fd5b50600436106100415760003560e01c8063b6cb58a514610046578063bc8bc2b414610064578063e34f122114610116575b600080fd5b61004e6101d1565b6040518082815260200191505060405180910390f35b6100906004803603602081101561007a57600080fd5b81019080803590602001909291905050506101d7565b604051808060200183151515158152602001828103825284818151815260200191508051906020019080838360005b838110156100da5780820151818401526020810190506100bf565b50505050905090810190601f1680156101075780820380516001836020036101000a031916815260200191505b50935050505060405180910390f35b6101cf6004803603602081101561012c57600080fd5b810190808035906020019064010000000081111561014957600080fd5b82018360208201111561015b57600080fd5b8035906020019184600183028401116401000000008311171561017d57600080fd5b91908080601f016020809104026020016040519081016040528093929190818152602001838380828437600081840152601f19601f8201169050808301925050505050505091929192905050506102a0565b005b60005481565b6001602052806000526040600020600091509050806000018054600181600116156101000203166002900480601f0160208091040260200160405190810160405280929190818152602001828054600181600116156101000203166002900480156102835780601f1061025857610100808354040283529160200191610283565b820191906000526020600020905b81548152906001019060200180831161026657829003601f168201915b5050505050908060010160009054906101000a900460ff16905082565b6040518060400160405280828152602001600015158152506001600080600081548092919060010191905055815260200190815260200160002060008201518160000190805190602001906102f69291906103c6565b5060208201518160010160006101000a81548160ff0219169083151502179055509050507f022c3fffe570decf2328dbf4f2af598df5112da7e31568af8b927c48276ccae3816001600054036040518080602001838152602001828103825284818151815260200191508051906020019080838360005b8381101561038857808201518184015260208101905061036d565b50505050905090810190601f1680156103b55780820380516001836020036101000a031916815260200191505b50935050505060405180910390a150565b828054600181600116156101000203166002900490600052602060002090601f016020900481019282601f1061040757805160ff1916838001178555610435565b82800160010185558215610435579182015b82811115610434578251825591602001919060010190610419565b5b5090506104429190610446565b5090565b61046891905b8082111561046457600081600090555060010161044c565b5090565b9056fea265627a7a72315820af18f2f5cefb4e112381e91ecbff80f2b9a4aa79f10db7b874eef9f9e7af6dc064736f6c63430005100032",
  "source": "//SPDX-License-Identifier: UNLICENSED\r\n\r\npragma solidity >= 0.5.0 < 0.9.0;\r\n\r\ncontract TodoList{\r\n    uint public taskCount;\r\n\r\n    struct Todo{\r\n        string todoName;\r\n        bool isCompleted;\r\n    }\r\n\r\n    constructor() public {\r\n        todos[0] = Todo(\"test\", true);\r\n        taskCount = 1;\r\n    }\r\n\r\n    mapping(uint => Todo) public todos;\r\n    event TodoCreated(string task, uint todoNumber);\r\n\r\n    function createTodo(string memory _taskName) public {\r\n    // add task to Todo & increment taskCount\r\n    todos[taskCount++] = Todo(_taskName,false);\r\n\r\n    //emit event\r\n    emit TodoCreated(_taskName, taskCount - 1);\r\n    }\r\n\r\n}",
  "sourcePath": "D:\\Block ETH\\todo_dapp\\todo_dapp\\contracts\\TodoList.sol",
  "compiler": {
    "name": "solc",
    "version": "0.5.16+commit.9c3226ce.Emscripten.clang"
  },
  "schemaVersion": "3.4.4",
  "updatedAt": "2022-01-24T07:32:37.229Z",
  "networkType": "ethereum",
  "devdoc": {
    "methods": {}
  },
  "userdoc": {
    "methods": {}
  }
}